S01700004763634170706C69636174696F6E322E737265635A
S113000063C500007DC500007BC5000079C5000004
S113001077C5000075C5000073C5000071C50000F8
S11300206FC500006DC500006BC5000069C5000008
S113003067C5000065C5000063C5000061C5000018
S11300405FC500005DC500005BC5000059C5000028
S113005057C50000EFC5000053C5000051C500009E
S11300604FC500004DC50000000000000000000066
S1130070000000000000000000000000000000007C
S11300800000000000000000000602000000000064
S11300900000000000020600000000000010040040
S11300A00018000000000000001E020E0E020600F0
S11300B00006020E0E021E000008101212120C009E
S11300C0001E020E1C101800001E020E0E021E005E
S11300D0001E020E0E021E00000C121212120C0060
S11300E0001E020E1C101E00800000000000000014
S11300F0000000000000008000000000000000403C
S113010040000000000000008180000000000000AA
S1130110000000000000808100000000000040603A
S113012060400000000000008381800000000000A7
S11301300000000000808183000000000040607027
S11301407060400000000000878381800000000090
S11301500000000080818387000000004060707808
S113016078706040000000008F8783818000000069
S1130170000000808183878F000000406070787CDD
S11301807C787060400000001F8F878381800000AE
S11301900000808183878F1F0000406070787C3E60
S11301A03E7C7870604000003E1F8F878381800012
S11301B000808183878F1F3E00406070787C3E1FE3
S11301C01F3E7C78706040007C3E1F8F8783818057
S11301D0808183878F1F3E7C406070787C3E1F8FB8
S11301E08F1F3E7C78706040787C3E1F8F878381B0
S11301F08183878F1F3E7C786070787C3E1F8F8759
S1130200878F1F3E7C78706070787C3E1F8F878359
S113021083878F1F3E7C787070787C3E1F8F878326
S113022083878F1F3E7C78706070787C3E1F8F8739
S1130230878F1F3E7C787060787C3E1F8F87838118
S11302408183878F1F3E7C78406070787C3E1F8F4F
S11302508F1F3E7C787060407C3E1F8F8783818037
S1130260808183878F1F3E7C00406070787C3E1FB6
S11302701F3E7C78706040003E1F8F878381800022
S113028000808183878F1F3E0000406070787C3E31
S11302903E7C7870604000001F8F8783818000005F
S11302A000808183878F1F3E000000406070787C4F
S11302B07C787060400000008F878381800000009C
S11302C0000000808183878F000000004060707808
S11302D07870604000000000878381800000000087
S11302E000000000808183870000000000406070EF
S11302F07060400000000000838180000000000066
S113030000000000008081830000000000004060C5
S11303106040000000000000818000000000000038
S11303200000000000008081000000000000004088
S113033040000000000000008000000000000000F9
S11303400000000000000080000000000000000029
S11303500000000000000000000000000000000099
S11303600000000000000000000000000000000089
S11303700000000000000000000000000000000079
S11303800000000000000000000000000000000069
S11303900000000000000000000000000000000059
S11303A00000000000007CFD00000000000000814F
S11303B00000000000000000000000000000000039
S11303C0000000000000007C00000000000000BDF0
S11303D00000000000000000000000000000000019
S11303E00000000000000000000000000000008188
S11303F000000000000000000000000000007F007A
S113040000000000000000000000000000000000E8
S113041000000000000000000000000000000000D8
S11304200000000000007C00FFFFFFFFFFFFFFFF54
S1130430FFFFFFFFFFFFFFFFFFFFFFFFFFFFFFFFC8
S1130440FFFFFFFFFFFFFFFFFFFFFFBF9F8F8783BC
S113045083878F9FBFFFFFFF70787C7E7FFFFFFF46
S1130460FFFFFF7F7E7C78708F8783818000000090
S1130470000000808183878F000000406070787CDA
S11304807C78706040000000000000000000000064
S11304900000000000000000000000000000000058
S11304A00000000000000000000000000000000048
S11304B00000000000000000000000000000000038
S11304C00000000000000000000000000000000028
S11304D000000083000000000000300000003F0026
S11304E00000000000000000000000000000008187
S11304F00000003C000000000000000000007F003D
S11305000000000000000000000000000000008166
S1130510000000007C0000000000000000007F00DC
S11305200000000000000000000000000000008146
S11305300000000000000000000000007E007F00BA
S113054000000000000000000000000000000000A7
S113055000000000000F0000000000000000000088
S11305600000000000000000000000000000008106
S113057000000000400000000000000081007F0037
S113058000000000000000000000000000000081E6
S113059000000000870000000000000000007F0051
S11305A000000000000000000000000000000081C6
S11305B000008700000000000000000000007F0031
S11305C000000000000000000000000000000081A6
S11305D000000000000087000000000000007F0011
S11305E00000000000000000000000000000000007
S11305F08300000000000000000000000000000074
S11306000000000000000000000000000000008165
S113061000000000000078000000000000007F00DF
S11306200000000000000000000000000000008145
S1130630000000000000000000001F0000007F0018
S11306400000000000000000000000000000008125
S113065000007C00000000000000800000007F001B
S11306600000000000000000000000000000008105
S11306700000004000000000000000BF00007F00F8
S113068000000000000000000000000000000081E5
S113069000000000007800000000000000817F00DE
S11306A000000000000000000000000000000081C5
S11306B0000000000000000000000000003E7F0079
S11306C00000000000000000000000000000000026
S11306D00000000000000000000000000000000016
S11306E00000000000000000000000000000000006
S11306F08300000000000000000000000000000073
S113070000000000000000000000000000000000E5
S11307107C00000000000000000000000000000059
S11307200000000000000000000000000000008144
S1130730009F0000000000000000000000007F0097
S11307400000000000000000000000000000008124
S11307500000000000000000FF00000000007F0017
S11307600000000000000000000000000000008104
S1130770006000000000000000BF000000007F00D7
S11307800000000000000000000000000000000065
S11307900000000000000000000000000000000055
S11307A000000000000000009D1C0000000000008C
S11307B00000000000000000000000000000000035
S11307C000000000003E00009D60000000000000EA
S11307D00000000000000000000000000000000015
S11307E000810000007E00009D008F0000000000DA
S11307F000000000000000000000000000000000F5
S113080000000000007E00009D00000000000000C9
S113081000000000000000000000000000000000D4
S1130820007E0000007E00009D00000087000000A4
S113083000000000000000000000000000000000B4
S113084000000000007E00009D0038000000000051
S11308500000000000000000000000000000000094
S113086000000000007E00009D0040000000000029
S11308700000000000000000000000000000000074
S113088000008300007E00009D000087000000003F
S11308900000000000000000000000000000000054
S11308A000000000007E00009D00000000700000B9
S11308B00000000000000000000000000000000034
S11308C00000000000FE0000DD0000000000000049
S11308D00000000000000000000000000000000014
S11308E081000000007E00009D0000000000000068
S11308F000000000000000000000000000000000F4
S113090000003C00007E00009D000000008F0000FD
S113091000000000000000000000000000000000D3
S113092000000000007E00009D00007C000000002C
S113093000000000000000000000000000000000B3
S113094000000080007E00009D0000007C0000008C
S11309500000000000000000000000000000000093
S113096000000000837E00009D00000000000000E5
S11309700000000000000000000000000000000073
S11309800000003F007E00009D0000000000000009
S11309900000000000000000000000000000000053
S11309A0000000007C7E0000DD004000000000002C
S11309B00000000000000000000000000000000033
S11309C081008300007E0000DD000087000000003D
S11309D00000000000000000000000000000000013
S11309E081000000007E0000DD00000000700000B7
S11309F000000000000000000000000000000000F3
S1130A008100000000FE00009D00000000000000C6
S1130A1000000000000000000000000000000000D2
S1130A203E000000007E00009D9D000000000000CC
S1130A3000000000000000000000000000000000B2
S1130A403E000000007E00009D60000000000000E9
S1130A500000000000000000000000000000000092
S1130A603E810000007E00009D008F000000000019
S1130A700000000000000000000000000000000072
S1130A803E000000007E00009D0000000000780091
S1130A900000000000000000000000000000000052
S1130AA000000000000081009D000000000087009D
S1130AB00000000000000000000000000000000032
S1130AC0000000000000000011241FBECFEFD8E09A
S1130AD0DEBFCDBF11E0A0E0B1E0ECE6FFE102C073
S1130AE005900D92A036B107D9F721E0A0E6B1E058
S1130AF001C01D92A638B207E1F728D00C94B40FB8
S1130B007FCA0F931F93CF938DE191E09F938F93AF
S1130B103DD70F900F90C1E005E211E080E290E034
S1130B2048D78C2F36D1882369F0C1E0C80F1F92B3
S1130B308F931F930F932AD70F900F900F900F90BE
S1130B40C111ECCFCF911F910F91089502D179D5A6
S1130B5048D5CED0E0E8F1E08EE091E09383828343
S1130B6080E091E09183808381D12FEF30E782E0B0
S1130B70215030408040E1F700C000008BE291E05A
S1130B801DD7BFDFCDD084E190E028D46FD1C0E081
S1130B90D0E000E010E00F2EF9E0EF2EF12CF02D64
S1130BA0C12CD12CAA24A394B12C07C0CC2DDD2DAB
S1130BB004C0CC2DDD2D0C2D1D2D61E08FE071D1F5
S1130BC0AE01B801C70137D29FEF23E234EF80E0D2
S1130BD09150204030408040D9F700C000000530DB
S1130BE0110561F4C930D10501F524E130E049E093
S1130BF050E065E070E0C70178D209C02196CA30A0
S1130C00D105D9F60F5F1F4F0630110579F69FEF16
S1130C10E91AF90A29E1E216F10459F6CC2DDD2D81
S1130C200C2D1D2DEA2CFB2CC8CF2196CA30D105E2
S1130C3021F6EDCF1F920F920FB60F9211242F932E
S1130C403F934F935F936F937F938F939F93AF9350
S1130C50BF93CF93DF93EF93FF93C9E7D0E08881ED
S1130C601F928F938AE491E09F938F938FD668812C
S1130C7070E080E090E074D523EA36E043E55BE37E
S1130C80FBD520E030E040E85EE303D52AE037ED11
S1130C904EE052E4F1D59F938F937F936F9386E553
S1130CA091E09F938F9372D62FEF80E792E02150CB
S1130CB080409040E1F700C000008DB79EB70A96CF
S1130CC00FB6F8949EBF0FBE8DBFFF91EF91DF91D9
S1130CD0CF91BF91AF919F918F917F916F915F91D0
S1130CE04F913F912F910F900FBE0F901F90189529
S1130CF0EAE7F0E0808187608083ACE7B0E08C9124
S1130D0080648C938C9180628C93808180688083D2
S1130D108081886080837894808180648083089552
S1130D2042E065E080ED58D045E164E080ED54D0C8
S1130D3046E166E080ED50D042E262E080ED4CD0C6
S1130D4045E161E080ED48D040E160E080ED44C0E1
S1130D5008951092B90088E48093B800089594EA45
S1130D609093BC00ECEBF0E090819923ECF7809336
S1130D70BB0084E88093BC00ECEBF0E08081882326
S1130D80ECF79091B900987F81E0983109F080E008
S1130D900895CF93C82F8F3F41F08C2FE0DF81114E
S1130DA006C0CF5FCF3FC9F703C080E001C08C2FDE
S1130DB0CF9108958093BB0084E88093BC00ECEB52
S1130DC0F0E080818823ECF79091B900987F81E06E
S1130DD0983209F480E00895CF93DF93D62FC42F7F
S1130DE0BEDF8D2FE7DF8C2FE5DF84E98093BC0025
S1130DF0DF91CF910895CF92DF92EF92FF920F93FC
S1130E001F93CF93DF93C82ED62E7A012A988A0196
S1130E10015011091016110654F4C0E0D0E080E02E
S1130E200BD480E009D42196C017D107C4F38C2DCC
S1130E3003D48D2D01D404E010E00E191F091016FF
S1130E40110654F4C0E0D0E080E0F6D380E0F4D39F
S1130E502196C017D107C1F72A9ADF91CF911F912C
S1130E600F91FF90EF90DF90CF900895CF93C091B2
S1130E701C0141E050E060E08C2FBDDF42E050E017
S1130E8060E08C2FB8DF43E050E060E08C2FB3DFEC
S1130E9044E050E060E08C2FAEDFC15051F7CF91B9
S1130EA008950F931F93CF93DF93082F162F2A983B
S1130EB0C4E0D0E0802FC0D3812FBED32197D1F7D7
S1130EC02A9ADF91CF911F910F910895EF92FF928B
S1130ED00F931F93CF93DF93FB01EE0FFF1F9B0133
S1130EE0220F331F220F331F220F331F2E0F3F1FDA
S1130EF0240F351F223031051CF004E010E002C03D
S1130F0000E010E02832310549F02233310531F098
S1130F102733310519F023323105A1F40196E6E0B7
S1130F20F0E0DF01A61BB70BBD01FA01E170F07818
S1130F30FF2324F43197EE6FFF6F31966E1B7F0B06
S1130F4005E010E02F303105B1F02E313105D1F03C
S1130F502D32310541F4019601E010E040E050E00B
S1130F6060E070E015C0F9013B97369788F4A90159
S1130F7060E070E00DC002E010E040E050E060E0AE
S1130F8070E006C003E010E040E050E060E070E094
S1130F908931910514F081E090E0A0E6B1E0EC0124
S1130FA0CC0FDD1FC295D295D07FDC27C07FDC2714
S1130FB0660F771F62957295707F7627607F76271C
S1130FC0440F551F42955295507F5427407F542714
S1130FD0000F111F02951295107F1027007F102714
S1130FE020E030E0F901EC0FFD1FE857F84FF490D2
S1130FF0F901E60FF71FE853F94FE490F901E40F04
S1131000F51FE855FB4F8491F901E00FF11FE859F2
S1131010FC4F9491EE2DEF29E82BE92BED932F5FF4
S11310203F4F20323105F1F6DF91CF911F910F919F
S1131030FF90EF9008954F925F926F927F928F92FC
S11310409F92AF92BF92CF92DF92EF92FF920F9353
S11310501F93CF93DF9320911C01E4E02E029001B3
S113106011241216130684F55A016B014C0100E693
S113107011E0612C712CC0E0D0E06894EE24E2F819
S1131080F12C412C512C08C0C830D10529F4F1E0D1
S1131090EF1AF108C42DD52DA501B601C40116DF40
S11310A0F80161918F01A7018C2F8F5FA4DE219637
S11310B0FFEF6F1A7F0A80911C0124E08202C001B5
S11310C011246816790604F3DF91CF911F910F91D3
S11310D0FF90EF90DF90CF90BF90AF909F908F9054
S11310E07F906F905F904F9008952F923F924F9210
S11310F05F926F927F928F929F92AF92BF92CF92A4
S1131100DF92EF92FF920F931F93CF93DF93CDB7AC
S1131110DEB72A970FB6F894DEBF0FBECDBF9E830D
S11311208D837C836B8358874F833A832983CEDEF8
S113113069807A8021E0621A71080AF484C063012C
S1131140CC0CDD1CCC0CDD1CCC0CDD1CCC0CDD1C57
S1131150CC0CDD1C0F2EF6E04F2E512CF02D212C43
S1131160312CC30165E070E0EAD3892B39F439E00E
S1131170431651041CF48FEF481A580AEFE7FBEBAF
S11311803197F1F700C0000080911C01F4E08F0258
S1131190C0011124181619060CF04AC000E611E02B
S11311A05201AA0CBB1CAA0CBB1CAA0CBB1CAA0C8B
S11311B0BB1CAA0CBB1C19861A86812C912C689422
S11311C0EE24E2F8F12C09C038E08316910429F4E6
S11311D081E0E81AF108822C932CE985FA85EC0D5C
S11311E0FD1DE851FF4F8491F80161918F01E9855C
S11311F0FA85EA0DFB1DE859FC4FE4916E23682B38
S1131200A70181E0880DF7DDFFEF8F1A9F0A29857A
S11312103A852F5F3F4F3A87298780911C0134E03C
S11312208302C0011124E985FA85E817F90764F2FD
S1131230F1E06F1A710820E2C21AD1083FEF631679
S1131240730609F08ECF4F8158854F5F5F4F4A3048
S1131250510599F48B819C8101969C838B8306971D
S113126051F4ED81FE813196FE83ED8340E050E040
S11312701C821B8202C040E050E06B817C818D8126
S11312809E8124DE29813A81121613060CF08DC04A
S1131290C12CD12C612C712C0F2EFAE04F2E512C25
S11312A0F02D212C312CC30165E070E048D3892B4B
S11312B039F437E0431651041CF081E0481A510810
S11312C0EFE7FBEB3197F1F700C0000016141704A9
S11312D064F480E090E0EFE3FFE13197F1F700C0C0
S11312E00000019686159705B1F780911C01F4E082
S11312F08F02C0011124181619060CF04AC000E62A
S113130011E05201AA0CBB1CAA0CBB1CAA0CBB1CEE
S1131310AA0CBB1CAA0CBB1C1B821C82812C912C0A
S11313206894EE24E2F8F12C09C038E083169104A5
S113133029F481E0E81AF108822C932CEB81FC81DA
S1131340EC0DFD1DE851FF4F8491F80161918F016F
S1131350EB81FC81EA0DFB1DE859FC4FE4916E23FF
S1131360682BA70181E0880D46DDFFEF8F1A9F0AE5
S11313702B813C812F5F3F4F3C832B8380911C0149
S113138034E08302C0011124EB81FC81E817F907E2
S113139064F2FFEF6F1A7F0A20E2C20ED11C89812A
S11313A09A816816790609F07ECF2A960FB6F894CA
S11313B0DEBF0FBECDBFDF91CF911F910F91FF9084
S11313C0EF90DF90CF90BF90AF909F908F907F90E1
S11313D06F905F904F903F902F9008952F923F927F
S11313E04F925F926F927F928F929F92AF92BF9231
S11313F0CF92DF92EF92FF920F931F93CF93DF93DD
S11314003C015C0121E0A21AB1080AF453C0650151
S1131410CC0CDD1CCC0CDD1CCC0CDD1CCC0CDD1C84
S1131420CC0CDD1C412C512C6894222422F8312C44
S1131430842C952C8FE79BEB0197F1F700C00000FB
S113144080911C01E4E08E02C001112418161906D3
S113145054F025C0C830D10561F4F1E0EF1AF10869
S1131460C82DD92D06C0042D152DC42DD52DE22C43
S1131470F32CF601E00FF11FE851FF4F6491A7012F
S11314808C2F8F5FB8DC21960F5F1F4F80911C015A
S1131490F4E08F02C001112408171907DCF221E0DF
S11314A0A21AB10880E2C81AD1089FEFA916B9069A
S11314B009F0C0CF161417040CF471C066C0EFE332
S11314C0FCE93197F1F700C000001C141D0464F41A
S11314D0822D932DEFE3FFE13197F1F700C0000077
S11314E001968C159D05B4F3F0E28F0E911C80914A
S11314F01C0124E08202C0011124181619060CF004
S11315003DC0C60165E070E01AD25B01AA0CBB1CA9
S1131510AA0CBB1CAA0CBB1CAA0CBB1CAA0CBB1C93
S1131520C22DD32D022D132D6894EE24E2F8F12C54
S113153008C00830110529F4E1E0EE1AF108042D81
S1131540152DF401EC0FFD1FE851FF4F8491F501B7
S1131550EC0FFD1FE859FF4F6491682BA70181E050
S1131560800F49DC0F5F1F4F219680911C01F4E02E
S11315708F02C0011124C817D907DCF22FEFC21A59
S1131580D20AC614D70409F09ACF8FEF9DE3E9E499
S113159081509040E040E1F700C000000FC08FE3AD
S11315A09CE90197F1F700C00000812C912CC12C1B
S11315B0D12C212C312C422C532C99CFDF91CF915B
S11315C01F910F91FF90EF90DF90CF90BF90AF905D
S11315D09F908F907F906F905F904F903F902F904F
S11315E0089584B18C6284B98CB582658CBD60E049
S11315F089E057DC2FEF80E792E021508040904053
S1131600E1F700C0000060911C0161508BE049DCEF
S11316106FE08AE046DC2ADC2FEF80E792E021507D
S113162080409040E1F700C0000061E08CE039DCCC
S113163060E08FE036CC08958EBD0DB407FEFDCF7B
S113164008951092C50087E68093C400E0ECF0E0B2
S113165080818D7F808386E08093C20088E18093BF
S1131660C1000895CF93C82F8A3011F48DE0FADFBA
S1131670E0ECF0E0908195FFFDCFC093C600CF91E0
S11316800895E0ECF0E080818823ECF78091C600B7
S113169008955058BB27AA270ED0B4C0A5D030F067
S11316A0AAD020F031F49F3F11F41EF49AC00EF436
S11316B0E095E7FB90C0E92FB6D080F3BA17620734
S11316C073078407950718F071F49EF5CEC00EF4E5
S11316D0E0950B2EBA2FA02D0B01B90190010C013E
S11316E0CA01A0011124FF27591B99F0593F50F456
S11316F0503E68F11A16F040A22F232F342F4427AE
S1131700585FF3CF469537952795A795F0405395A5
S1131710C9F77EF41F16BA0B620B730B840BBAF075
S11317209150A1F0FF0FBB1F661F771F881FC2F7E0
S11317300EC0BA0F621F731F841F48F487957795F4
S11317406795B795F7959E3F08F0B3CF9395880FAB
S113175008F09927EE0F979587950895E89409C0A6
S113176097FB3EF490958095709561957F4F8F4FD0
S11317709F4F9923A9F0F92F96E9BB279395F695E6
S1131780879577956795B795F111F8CFFAF4BB0F64
S113179011F460FF1BC06F5F7F4F8F4F9F4F16C0C8
S11317A0882311F096E911C0772321F09EE8872F52
S11317B0762F05C0662371F096E8862F70E060E00E
S11317C02AF09A95660F771F881FDAF7880F969587
S11317D0879597F9089597F99F6780E870E060E02E
S11317E008959FEF80EC089500240A9416161706B6
S11317F018060906089500240A94121613061406FE
S113180005060895092E0394000C11F4882352F060
S1131810BB0F40F4BF2B11F460FF04C06F5F7F4F18
S11318208F4F9F4F089557FD9058440F551F59F0FF
S11318305F3F71F04795880F97FB991F61F09F3FB9
S113184079F087950895121613061406551FF2CFE2
S11318504695F1DF08C0161617061806991FF1CF32
S113186086957105610508940895E894BB27662759
S11318707727CB0197F908950BD0C4CFB5DF28F0B3
S1131880BADF18F0952309F0A6CFABCF1124EECF21
S1131890CADFA0F3959FD1F3950F50E0551F629FC7
S11318A0F001729FBB27F00DB11D639FAA27F00DB5
S11318B0B11DAA1F649F6627B00DA11D661F829FDC
S11318C02227B00DA11D621F739FB00DA11D621FC1
S11318D0839FA00D611D221F749F3327A00D611DDE
S11318E0231F849F600D211D822F762F6A2F1124C0
S11318F09F5750408AF0E1F088234AF0EE0FFF1F13
S1131900BB1F661F771F881F91505040A9F79E3F49
S1131910510570F060CFAACF5F3FECF3983EDCF343
S1131920869577956795B795F795E7959F5FC1F786
S1131930FE2B880F911D9695879597F9089597FB2F
S1131940072E16F4009406D077FD08D00BD007FCC0
S113195005D03EF4909581959F4F089570956195BB
S11319607F4F0895AA1BBB1B51E107C0AA1FBB1FD1
S1131970A617B70710F0A61BB70B881F991F5A9517
S1131980A9F780959095BC01CD010895A0E0B0E041
S1131990EBECFCE0C2C2AE014B5F5F4FFA01619118
S11319A07191AF01809182019091830137D0E2E07F
S11319B0D0C2609182017091830109C20F931F9379
S11319C0CF93DF93E0918201F0918301238121FF82
S11319D01BC08C01D0E0C0E0F80181918F016091BF
S11319E0820170918301DB011896ED91FC911997A6
S11319F0882331F00995892B79F3DFEFCFEFECCF12
S1131A008AE00995892B19F08FEF9FEF02C08D2F83
S1131A109C2FDF91CF911F910F910895ACE0B0E01E
S1131A20E3E1FDE06AC27C016B018A01FC011782DB
S1131A301682838181FFB0C1CE0101964C01F7016A
S1131A409381F60193FD859193FF81916F01882322
S1131A5009F49EC1853239F493FD859193FF8191F8
S1131A606F01853221F4B70190E0B1D1E8CF512C58
S1131A70312C20E02032A0F48B3269F030F4803233
S1131A8059F0833269F420612CC08D3239F08033EF
S1131A9039F4216026C02260246023C0286021C05C
S1131AA027FD27C030ED380F3A3078F426FF06C002
S1131AB0FAE05F9E300D1124532E13C08AE0389E45
S1131AC0300D1124332E20620CC08E3221F426FDF9
S1131AD05FC1206406C08C3611F4206802C08836C9
S1131AE041F4F60193FD859193FF81916F0181117A
S1131AF0C1CF982F9F7D9554933028F40C5F1F4FCE
S1131B00FFE3F9830DC0833631F0833771F08335F9
S1131B1009F057C021C0F801808189830E5F1F4FEF
S1131B2044244394512C540114C03801F2E06F0E44
S1131B30711CF801A080B18026FF03C0652D70E000
S1131B4002C06FEF7FEFC5012C8736D12C018301D2
S1131B502C852F77222E16C03801F2E06F0E711CEF
S1131B60F801A080B18026FF03C0652D70E002C09B
S1131B706FEF7FEFC5012C8714D12C012C852068D1
S1131B80222E830123FC19C0832D90E048165906A8
S1131B90A0F4B70180E290E01AD13A94F5CFF501B0
S1131BA027FC859127FE81915F01B70190E00FD159
S1131BB031103A94F1E04F1A51084114510479F765
S1131BC0DEC0843611F0893631F5F80127FF07C0ED
S1131BD060817181828193810C5F1F4F08C0608195
S1131BE07181072E000C880B990B0E5F1F4F2F7607
S1131BF0722E97FF09C090958095709561957F4FDF
S1131C008F4F9F4F2068722E2AE030E0A40117D135
S1131C10A82EA81843C0853729F42F7EB22E2AE0B7
S1131C2030E025C0F22FF97FBF2E8F36C1F018F4B3
S1131C30883579F0ADC0803719F0883721F0A8C015
S1131C402F2F2061B22EB4FE0DC08B2D8460B82ED0
S1131C5009C024FF0AC09F2F9660B92E06C028E051
S1131C6030E005C020E130E002C020E132E0F801BC
S1131C70B7FE07C060817181828193810C5F1F4F21
S1131C8006C06081718180E090E00E5F1F4FA40167
S1131C90D6D0A82EA818FB2DFF777F2E76FE0BC07A
S1131CA0372D3E7FA51450F474FE0AC072FC08C0A0
S1131CB0372D3E7E05C0BA2C372D03C0BA2C01C087
S1131CC0B52C34FF0DC0FE01EA0DF11D8081803377
S1131CD011F4397E09C032FF06C0B394B39404C032
S1131CE0832F867809F0B39433FD12C030FF06C009
S1131CF05A2CB31418F4530C5B18B32CB31460F4BB
S1131D00B70180E290E03C8762D0B3943C85F6CF83
S1131D10B31410F43B1801C0312C34FF11C0B701C7
S1131D2080E390E03C8753D03C8532FF16C031FD00
S1131D3003C088E790E002C088E590E0B7010CC0DA
S1131D40832F867851F031FF02C08BE201C080E21C
S1131D5037FD8DE2B70190E03AD0A51430F4B70115
S1131D6080E390E034D05A94F8CFAA94F401EA0DB9
S1131D70F11D8081B70190E02AD0A110F6CF332065
S1131D8009F45DCEB70180E290E021D03A94F7CF18
S1131D90F7018681978102C08FEF9FEF2C96E2E1D5
S1131DA0C8C0FC010590615070400110D8F78095BF
S1131DB090958E0F9F1F0895FC0161507040019013
S1131DC00110D8F7809590958E0F9F1F08950F935B
S1131DD01F93CF93DF93FB01238121FD03C08FEF7A
S1131DE09FEF28C022FF16C0468157812481358188
S1131DF04217530744F4A081B1819D012F5F3F4FE7
S1131E00318320838C93268137812F5F3F4F378323
S1131E10268310C0EB01092F182F0084F185E02DD3
S1131E200995892BE1F68E819F8101969F838E838C
S1131E30812F902FDF91CF911F910F910895FA0177
S1131E40AA27283051F1203181F1E8946F936E7FF5
S1131E506E5F7F4F8F4F9F4FAF4FB1E03ED0B4E0E6
S1131E603CD0670F781F891F9A1FA11D680F791F27
S1131E708A1F911DA11D6A0F711D811D911DA11D38
S1131E8020D009F468943F912AE0269F1124301948
S1131E90305D3193DEF6CF010895462F4770405DE3
S1131EA04193B3E00FD0C9F7F6CF462F4F70405D92
S1131EB04A3318F0495D31FD4052419302D0A9F7ED
S1131EC0EACFB4E0A6959795879577956795BA95E7
S1131ED0C9F700976105710508959B01AC010A2EAD
S1131EE006945795479537952795BA95C9F7620F84
S1131EF0731F841F951FA01D08952F923F924F9228
S1131F005F926F927F928F929F92AF92BF92CF9285
S1131F10DF92EF92FF920F931F93CF93DF93CDB78E
S1131F20DEB7CA1BDB0B0FB6F894DEBF0FBECDBF06
S1131F3009942A88398848885F846E847D848C84D7
S1131F409B84AA84B984C884DF80EE80FD800C81E0
S1131F501B81AA81B981CE0FD11D0FB6F894DEBFC3
S10F1F600FBECDBFED010895F894FFCF33
S1131F6C00000001000000000000410B0000000014
S1131F7C000200000000320B0000000008466F75E0
S1131F8C6E64203A00252330337800496E697469F5
S1131F9C616C69736174696F6E206465206C612077
S1131FAC576F7264436C6F636B0041444348203D2C
S1131FBC2025642C200074656D702025660A0000B1
S9030000FC
